{
    "contractName": "ProofOfExistence",
    "abi": [
        {
            "inputs": [
                {
                    "internalType": "string",
                    "name": "filehash",
                    "type": "string"
                }
            ],
            "name": "getFiles",
            "outputs": [
                {
                    "internalType": "uint256",
                    "name": "",
                    "type": "uint256"
                },
                {
                    "internalType": "string",
                    "name": "",
                    "type": "string"
                }
            ],
            "stateMutability": "nonpayable",
            "type": "function"
        },
        {
            "inputs": [
                {
                    "internalType": "string",
                    "name": "fileshash",
                    "type": "string"
                },
                {
                    "internalType": "string",
                    "name": "owner",
                    "type": "string"
                }
            ],
            "name": "storeFiles",
            "outputs": [],
            "stateMutability": "nonpayable",
            "type": "function"
        }
    ],
    "bytecode": "608060405234801561001057600080fd5b50610502806100206000396000f3fe608060405234801561001057600080fd5b50600436106100365760003560e01c80630acea8191461003b5780635a57148c14610065575b600080fd5b61004e61004936600461036a565b61007a565b60405161005c9291906103d7565b60405180910390f35b610078610073366004610411565b610156565b005b6000606060008360405161008e9190610475565b9081526020016040518091039020600101546000846040516100b09190610475565b90815260200160405180910390206000018080546100cd90610491565b80601f01602080910402602001604051908101604052809291908181526020018280546100f990610491565b80156101465780601f1061011b57610100808354040283529160200191610146565b820191906000526020600020905b81548152906001019060200180831161012957829003601f168201915b5050505050905091509150915091565b816000816040516101679190610475565b9081526020016040518091039020600101546000146101cc5760405162461bcd60e51b815260206004820152601860248201527f7468652066696c6520616c726561647920657869737465640000000000000000604482015260640160405180910390fd5b6040518060400160405280838152602001428152506000846040516101f19190610475565b9081526020016040518091039020600082015181600001908051906020019061021b92919061022e565b5060208201518160010155905050505050565b82805461023a90610491565b90600052602060002090601f01602090048101928261025c57600085556102a2565b82601f1061027557805160ff19168380011785556102a2565b828001600101855582156102a2579182015b828111156102a2578251825591602001919060010190610287565b506102ae9291506102b2565b5090565b5b808211156102ae57600081556001016102b3565b634e487b7160e01b600052604160045260246000fd5b600082601f8301126102ee57600080fd5b813567ffffffffffffffff80821115610309576103096102c7565b604051601f8301601f19908116603f01168101908282118183101715610331576103316102c7565b8160405283815286602085880101111561034a57600080fd5b836020870160208301376000602085830101528094505050505092915050565b60006020828403121561037c57600080fd5b813567ffffffffffffffff81111561039357600080fd5b61039f848285016102dd565b949350505050565b60005b838110156103c25781810151838201526020016103aa565b838111156103d1576000848401525b50505050565b82815260406020820152600082518060408401526103fc8160608501602087016103a7565b601f01601f1916919091016060019392505050565b6000806040838503121561042457600080fd5b823567ffffffffffffffff8082111561043c57600080fd5b610448868387016102dd565b9350602085013591508082111561045e57600080fd5b5061046b858286016102dd565b9150509250929050565b600082516104878184602087016103a7565b9190910192915050565b600181811c908216806104a557607f821691505b602082108114156104c657634e487b7160e01b600052602260045260246000fd5b5091905056fea264697066735822122031dfe0248b34b55b84233d239d1fefe2f4ceb2613a33d6a2f9231d0c834d8b5564736f6c634300080c0033",
    "sourcePath": "/home/asteven/Desktop/web3bridgecodes/proofofexistence/proof.sol",
    "compiler": {
        "name": "solc",
        "version": "0.8.12+commit.f00d7308"
    },
    "functionHashes": {
        "getFiles(string)": "0acea819",
        "storeFiles(string,string)": "5a57148c"
    },
    "gasEstimates": {
        "creation": {
            "codeDepositCost": "256400",
            "executionCost": "300",
            "totalCost": "256700"
        },
        "external": {
            "getFiles(string)": "infinite",
            "storeFiles(string,string)": "infinite"
        }
    }
}